{
    "contractName": "ERC20Token",
    "abi": [
        {
            "inputs": [
                {
                    "internalType": "string",
                    "name": "_name",
                    "type": "string"
                }
            ],
            "stateMutability": "nonpayable",
            "type": "constructor"
        },
        {
            "inputs": [
                {
                    "internalType": "address",
                    "name": "",
                    "type": "address"
                }
            ],
            "name": "balances",
            "outputs": [
                {
                    "internalType": "uint256",
                    "name": "",
                    "type": "uint256"
                }
            ],
            "stateMutability": "view",
            "type": "function"
        },
        {
            "inputs": [],
            "name": "mint",
            "outputs": [],
            "stateMutability": "nonpayable",
            "type": "function"
        },
        {
            "inputs": [],
            "name": "name",
            "outputs": [
                {
                    "internalType": "string",
                    "name": "",
                    "type": "string"
                }
            ],
            "stateMutability": "view",
            "type": "function"
        }
    ],
    "bytecode": "608060405234801561001057600080fd5b506040516103953803806103958339818101604052602081101561003357600080fd5b810190808051604051939291908464010000000082111561005357600080fd5b90830190602082018581111561006857600080fd5b825164010000000081118282018810171561008257600080fd5b82525081516020918201929091019080838360005b838110156100af578181015183820152602001610097565b50505050905090810190601f1680156100dc5780820380516001836020036101000a031916815260200191505b50604052505081516100f6915060009060208401906100fd565b5050610190565b828054600181600116156101000203166002900490600052602060002090601f016020900481019282601f1061013e57805160ff191683800117855561016b565b8280016001018555821561016b579182015b8281111561016b578251825591602001919060010190610150565b5061017792915061017b565b5090565b5b80821115610177576000815560010161017c565b6101f68061019f6000396000f3fe608060405234801561001057600080fd5b50600436106100415760003560e01c806306fdde03146100465780631249c58b146100c357806327e235e3146100cd575b600080fd5b61004e610105565b6040805160208082528351818301528351919283929083019185019080838360005b83811015610088578181015183820152602001610070565b50505050905090810190601f1680156100b55780820380516001836020036101000a031916815260200191505b509250505060405180910390f35b6100cb610193565b005b6100f3600480360360208110156100e357600080fd5b50356001600160a01b03166101ae565b60408051918252519081900360200190f35b6000805460408051602060026001851615610100026000190190941693909304601f8101849004840282018401909252818152929183018282801561018b5780601f106101605761010080835404028352916020019161018b565b820191906000526020600020905b81548152906001019060200180831161016e57829003601f168201915b505050505081565b32600090815260016020819052604090912080549091019055565b6001602052600090815260409020548156fea26469706673582212207ca8b50f743172c4a2a534e09d264eee50c2d49ebc8e4bb6c2d98d151287022464736f6c63430007020033",
    "sourcePath": "d:/Github/smart-repo/src/token-example/token-example.sol",
    "compiler": {
        "name": "solc",
        "version": "0.7.2+commit.51b20bc0"
    },
    "functionHashes": {
        "balances(address)": "27e235e3",
        "mint()": "1249c58b",
        "name()": "06fdde03"
    },
    "gasEstimates": {
        "creation": {
            "codeDepositCost": "100400",
            "executionCost": "infinite",
            "totalCost": "infinite"
        },
        "external": {
            "balances(address)": "1146",
            "mint()": "21039",
            "name()": "infinite"
        }
    }
}