{
    "contractName": "MyToken",
    "abi": [
        {
            "inputs": [
                {
                    "internalType": "string",
                    "name": "_name",
                    "type": "string"
                },
                {
                    "internalType": "string",
                    "name": "_symbol",
                    "type": "string"
                }
            ],
            "stateMutability": "nonpayable",
            "type": "constructor"
        },
        {
            "inputs": [
                {
                    "internalType": "address",
                    "name": "",
                    "type": "address"
                }
            ],
            "name": "balances",
            "outputs": [
                {
                    "internalType": "uint256",
                    "name": "",
                    "type": "uint256"
                }
            ],
            "stateMutability": "view",
            "type": "function"
        },
        {
            "inputs": [],
            "name": "mint",
            "outputs": [],
            "stateMutability": "nonpayable",
            "type": "function"
        },
        {
            "inputs": [],
            "name": "name",
            "outputs": [
                {
                    "internalType": "string",
                    "name": "",
                    "type": "string"
                }
            ],
            "stateMutability": "view",
            "type": "function"
        },
        {
            "inputs": [
                {
                    "internalType": "uint256",
                    "name": "",
                    "type": "uint256"
                }
            ],
            "name": "owners",
            "outputs": [
                {
                    "internalType": "address",
                    "name": "",
                    "type": "address"
                }
            ],
            "stateMutability": "view",
            "type": "function"
        },
        {
            "inputs": [],
            "name": "symbol",
            "outputs": [
                {
                    "internalType": "string",
                    "name": "",
                    "type": "string"
                }
            ],
            "stateMutability": "view",
            "type": "function"
        }
    ],
    "bytecode": "608060405234801561001057600080fd5b506040516105833803806105838339818101604052604081101561003357600080fd5b810190808051604051939291908464010000000082111561005357600080fd5b90830190602082018581111561006857600080fd5b825164010000000081118282018810171561008257600080fd5b82525081516020918201929091019080838360005b838110156100af578181015183820152602001610097565b50505050905090810190601f1680156100dc5780820380516001836020036101000a031916815260200191505b50604052602001805160405193929190846401000000008211156100ff57600080fd5b90830190602082018581111561011457600080fd5b825164010000000081118282018810171561012e57600080fd5b82525081516020918201929091019080838360005b8381101561015b578181015183820152602001610143565b50505050905090810190601f1680156101885780820380516001836020036101000a031916815260200191505b50604052505082518391506101a49060009060208401906101c1565b505080516101b99060029060208401906101c1565b505050610254565b828054600181600116156101000203166002900490600052602060002090601f016020900481019282601f1061020257805160ff191683800117855561022f565b8280016001018555821561022f579182015b8281111561022f578251825591602001919060010190610214565b5061023b92915061023f565b5090565b5b8082111561023b5760008155600101610240565b610320806102636000396000f3fe608060405234801561001057600080fd5b50600436106100575760003560e01c8063025e7c271461005c57806306fdde03146100955780631249c58b1461011257806327e235e31461011c57806395d89b4114610154575b600080fd5b6100796004803603602081101561007257600080fd5b503561015c565b604080516001600160a01b039092168252519081900360200190f35b61009d610183565b6040805160208082528351818301528351919283929083019185019080838360005b838110156100d75781810151838201526020016100bf565b50505050905090810190601f1680156101045780820380516001836020036101000a031916815260200191505b509250505060405180910390f35b61011a610211565b005b6101426004803603602081101561013257600080fd5b50356001600160a01b0316610265565b60408051918252519081900360200190f35b61009d610277565b6003818154811061016957fe5b6000918252602090912001546001600160a01b0316905081565b6000805460408051602060026001851615610100026000190190941693909304601f810184900484028201840190925281815292918301828280156102095780601f106101de57610100808354040283529160200191610209565b820191906000526020600020905b8154815290600101906020018083116101ec57829003601f168201915b505050505081565b6102196102cf565b6004805460019081019091556003805491820181556000527fc2575a0e9e593c00f959f8c92f12db2869c3395a3b0502d05e2516446f71f85b0180546001600160a01b03191633179055565b60016020526000908152604090205481565b6002805460408051602060018416156101000260001901909316849004601f810184900484028201840190925281815292918301828280156102095780601f106101de57610100808354040283529160200191610209565b3260009081526001602081905260409091208054909101905556fea2646970667358221220a98e08e500f9a0efc4cac540151fcc050841c57cb5d1aaccc1fb538503e9678064736f6c63430007020033",
    "sourcePath": "d:/Github/smart-repo/src/token-example/token-example.sol",
    "compiler": {
        "name": "solc",
        "version": "0.7.2+commit.51b20bc0"
    },
    "functionHashes": {
        "balances(address)": "27e235e3",
        "mint()": "1249c58b",
        "name()": "06fdde03",
        "owners(uint256)": "025e7c27",
        "symbol()": "95d89b41"
    },
    "gasEstimates": {
        "creation": {
            "codeDepositCost": "160000",
            "executionCost": "infinite",
            "totalCost": "infinite"
        },
        "external": {
            "balances(address)": "1168",
            "mint()": "83571",
            "name()": "infinite",
            "owners(uint256)": "1948",
            "symbol()": "infinite"
        }
    }
}