{
  "contractName": "AcceptEth",
  "abi": [
    {
      "inputs": [
        {
          "internalType": "address payable",
          "name": "_wallet",
          "type": "address"
        },
        {
          "internalType": "address",
          "name": "_token",
          "type": "address"
        }
      ],
      "stateMutability": "nonpayable",
      "type": "constructor"
    },
    {
      "inputs": [],
      "name": "buy_token",
      "outputs": [],
      "stateMutability": "payable",
      "type": "function"
    },
    {
      "inputs": [],
      "name": "token",
      "outputs": [
        {
          "internalType": "address",
          "name": "",
          "type": "address"
        }
      ],
      "stateMutability": "view",
      "type": "function"
    },
    {
      "stateMutability": "payable",
      "type": "receive"
    }
  ],
  "bytecode": "608060405234801561001057600080fd5b506040516101dd3803806101dd8339818101604052604081101561003357600080fd5b508051602090910151600080546001600160a01b039384166001600160a01b031991821617909155600180549390921692169190911790556101638061007a6000396000f3fe60806040526004361061002d5760003560e01c806383d8cfc014610041578063fc0c546a146100495761003c565b3661003c5761003a61007a565b005b600080fd5b61003a61007a565b34801561005557600080fd5b5061005e61011e565b604080516001600160a01b039092168252519081900360200190f35b600160009054906101000a90046001600160a01b03166001600160a01b0316631249c58b6040518163ffffffff1660e01b8152600401600060405180830381600087803b1580156100ca57600080fd5b505af11580156100de573d6000803e3d6000fd5b5050600080546040516001600160a01b0390911693503480156108fc02935091818181858888f1935050505015801561011b573d6000803e3d6000fd5b50565b6001546001600160a01b03168156fea2646970667358221220005f3d08d0b3fae723025936255818be085990e999b996ec59f9fed601f6371864736f6c63430007020033",
  "sourcePath": "d:/Github/smart-repo/src/accept-eth/accept-eth.sol",
  "compiler": {
    "name": "solc",
    "version": "0.7.2+commit.51b20bc0"
  },
  "functionHashes": {
    "buy_token()": "83d8cfc0",
    "token()": "fc0c546a"
  },
  "gasEstimates": {
    "creation": {
      "codeDepositCost": "71000",
      "executionCost": "infinite",
      "totalCost": "infinite"
    },
    "external": {
      "buy_token()": "infinite",
      "token()": "1037"
    }
  }
}