{
    "contractName": "ERC20Token",
    "abi": [
        {
            "inputs": [
                {
                    "internalType": "address",
                    "name": "",
                    "type": "address"
                }
            ],
            "name": "balances",
            "outputs": [
                {
                    "internalType": "uint256",
                    "name": "",
                    "type": "uint256"
                }
            ],
            "stateMutability": "view",
            "type": "function"
        },
        {
            "inputs": [],
            "name": "mint",
            "outputs": [],
            "stateMutability": "nonpayable",
            "type": "function"
        },
        {
            "inputs": [],
            "name": "name",
            "outputs": [
                {
                    "internalType": "string",
                    "name": "",
                    "type": "string"
                }
            ],
            "stateMutability": "view",
            "type": "function"
        }
    ],
    "bytecode": "608060405234801561001057600080fd5b506101f6806100206000396000f3fe608060405234801561001057600080fd5b50600436106100415760003560e01c806306fdde03146100465780631249c58b146100c357806327e235e3146100cd575b600080fd5b61004e610105565b6040805160208082528351818301528351919283929083019185019080838360005b83811015610088578181015183820152602001610070565b50505050905090810190601f1680156100b55780820380516001836020036101000a031916815260200191505b509250505060405180910390f35b6100cb610193565b005b6100f3600480360360208110156100e357600080fd5b50356001600160a01b03166101ae565b60408051918252519081900360200190f35b6000805460408051602060026001851615610100026000190190941693909304601f8101849004840282018401909252818152929183018282801561018b5780601f106101605761010080835404028352916020019161018b565b820191906000526020600020905b81548152906001019060200180831161016e57829003601f168201915b505050505081565b32600090815260016020819052604090912080549091019055565b6001602052600090815260409020548156fea2646970667358221220f14f5c938ff51d33fa6c56a42371dac25a85ead9fe7e137220317da603dceac264736f6c63430007020033",
    "sourcePath": "d:/Github/smart-repo/src/accept-eth/accept-eth.sol",
    "compiler": {
        "name": "solc",
        "version": "0.7.2+commit.51b20bc0"
    },
    "functionHashes": {
        "balances(address)": "27e235e3",
        "mint()": "1249c58b",
        "name()": "06fdde03"
    },
    "gasEstimates": {
        "creation": {
            "codeDepositCost": "100400",
            "executionCost": "147",
            "totalCost": "100547"
        },
        "external": {
            "balances(address)": "1146",
            "mint()": "21039",
            "name()": "infinite"
        }
    }
}