{
  "contractName": "HelloWorld",
  "abi": [
    {
      "inputs": [],
      "stateMutability": "nonpayable",
      "type": "constructor"
    },
    {
      "inputs": [],
      "name": "a_bool",
      "outputs": [
        {
          "internalType": "bool",
          "name": "",
          "type": "bool"
        }
      ],
      "stateMutability": "view",
      "type": "function"
    },
    {
      "inputs": [],
      "name": "activate",
      "outputs": [],
      "stateMutability": "nonpayable",
      "type": "function"
    },
    {
      "inputs": [
        {
          "internalType": "string",
          "name": "_first_name",
          "type": "string"
        },
        {
          "internalType": "string",
          "name": "_last_name",
          "type": "string"
        }
      ],
      "name": "add_person",
      "outputs": [],
      "stateMutability": "nonpayable",
      "type": "function"
    },
    {
      "inputs": [],
      "name": "another_int",
      "outputs": [
        {
          "internalType": "uint256",
          "name": "",
          "type": "uint256"
        }
      ],
      "stateMutability": "view",
      "type": "function"
    },
    {
      "inputs": [],
      "name": "b_bool",
      "outputs": [
        {
          "internalType": "bool",
          "name": "",
          "type": "bool"
        }
      ],
      "stateMutability": "view",
      "type": "function"
    },
    {
      "inputs": [],
      "name": "bigger_number",
      "outputs": [
        {
          "internalType": "uint256",
          "name": "",
          "type": "uint256"
        }
      ],
      "stateMutability": "view",
      "type": "function"
    },
    {
      "inputs": [],
      "name": "constant_function",
      "outputs": [
        {
          "internalType": "string",
          "name": "",
          "type": "string"
        }
      ],
      "stateMutability": "view",
      "type": "function"
    },
    {
      "inputs": [],
      "name": "default_value",
      "outputs": [
        {
          "internalType": "string",
          "name": "",
          "type": "string"
        }
      ],
      "stateMutability": "view",
      "type": "function"
    },
    {
      "inputs": [],
      "name": "is_active",
      "outputs": [
        {
          "internalType": "bool",
          "name": "",
          "type": "bool"
        }
      ],
      "stateMutability": "view",
      "type": "function"
    },
    {
      "inputs": [],
      "name": "one_int",
      "outputs": [
        {
          "internalType": "int256",
          "name": "",
          "type": "int256"
        }
      ],
      "stateMutability": "view",
      "type": "function"
    },
    {
      "inputs": [
        {
          "internalType": "uint256",
          "name": "",
          "type": "uint256"
        }
      ],
      "name": "people",
      "outputs": [
        {
          "internalType": "string",
          "name": "_first_name",
          "type": "string"
        },
        {
          "internalType": "string",
          "name": "_last_name",
          "type": "string"
        }
      ],
      "stateMutability": "view",
      "type": "function"
    },
    {
      "inputs": [],
      "name": "people_count",
      "outputs": [
        {
          "internalType": "uint256",
          "name": "",
          "type": "uint256"
        }
      ],
      "stateMutability": "view",
      "type": "function"
    },
    {
      "inputs": [
        {
          "internalType": "string",
          "name": "_value",
          "type": "string"
        }
      ],
      "name": "set",
      "outputs": [],
      "stateMutability": "nonpayable",
      "type": "function"
    },
    {
      "inputs": [],
      "name": "small_number",
      "outputs": [
        {
          "internalType": "uint8",
          "name": "",
          "type": "uint8"
        }
      ],
      "stateMutability": "view",
      "type": "function"
    },
    {
      "inputs": [],
      "name": "state",
      "outputs": [
        {
          "internalType": "enum HelloWorld.State",
          "name": "",
          "type": "uint8"
        }
      ],
      "stateMutability": "view",
      "type": "function"
    },
    {
      "inputs": [],
      "name": "value",
      "outputs": [
        {
          "internalType": "string",
          "name": "",
          "type": "string"
        }
      ],
      "stateMutability": "view",
      "type": "function"
    }
  ],
  "bytecode": "60c0604052600d60808190526c64656661756c745f76616c756560981b60a090815261002e91600191906100b5565b5060028054600160ff19918216811761ff001916909255600019600355600491909155600580546008921691909117905561010060065534801561007157600080fd5b5060408051808201909152600c8082526b48656c6c6f20576f726c642160a01b60209092019182526100a5916000916100b5565b506009805460ff19169055610148565b828054600181600116156101000203166002900490600052602060002090601f016020900481019282601f106100f657805160ff1916838001178555610123565b82800160010185558215610123579182015b82811115610123578251825591602001919060010190610108565b5061012f929150610133565b5090565b5b8082111561012f5760008155600101610134565b610943806101576000396000f3fe608060405234801561001057600080fd5b50600436106101005760003560e01c80637b95d97d11610097578063c19d93fb11610066578063c19d93fb146104ce578063ca2339a2146104f7578063dd15b9ff146104ff578063fefa748a1461050757610100565b80637b95d97d146102965780639174a36f1461029e5780639e7a13ad146103cb578063a65719f5146104c657610100565b806324cc5846116100d357806324cc5846146101635780633fa4f2451461016b57806349c862e5146101e85780634ed3885e146101f057610100565b80630b4831e6146101055780630c0888b41461011f5780630f15f4c01461013d5780631a8012e414610147575b600080fd5b61010d61050f565b60408051918252519081900360200190f35b610127610515565b6040805160ff9092168252519081900360200190f35b61014561051e565b005b61014f61052d565b604080519115158252519081900360200190f35b61014f610548565b610173610556565b6040805160208082528351818301528351919283929083019185019080838360005b838110156101ad578181015183820152602001610195565b50505050905090810190601f1680156101da5780820380516001836020036101000a031916815260200191505b509250505060405180910390f35b61010d6105e4565b6101456004803603602081101561020657600080fd5b81019060208101813564010000000081111561022157600080fd5b82018360208201111561023357600080fd5b8035906020019184600183028401116401000000008311171561025557600080fd5b91908080601f0160208091040260200160405190810160405280939291908181526020018383808284376000920191909152509295506105ea945050505050565b61010d610601565b610145600480360360408110156102b457600080fd5b8101906020810181356401000000008111156102cf57600080fd5b8201836020820111156102e157600080fd5b8035906020019184600183028401116401000000008311171561030357600080fd5b91908080601f016020809104026020016040519081016040528093929190818152602001838380828437600092019190915250929594936020810193503591505064010000000081111561035657600080fd5b82018360208201111561036857600080fd5b8035906020019184600183028401116401000000008311171561038a57600080fd5b91908080601f016020809104026020016040519081016040528093929190818152602001838380828437600092019190915250929550610607945050505050565b6103e8600480360360208110156103e157600080fd5b5035610690565b604051808060200180602001838103835285818151815260200191508051906020019080838360005b83811015610429578181015183820152602001610411565b50505050905090810190601f1680156104565780820380516001836020036101000a031916815260200191505b50838103825284518152845160209182019186019080838360005b83811015610489578181015183820152602001610471565b50505050905090810190601f1680156104b65780820380516001836020036101000a031916815260200191505b5094505050505060405180910390f35b61014f6107db565b6104d66107e4565b604051808260028111156104e657fe5b815260200191505060405180910390f35b61010d6107ed565b6101736107f3565b61017361084d565b60045481565b60055460ff1681565b6009805460ff19166002179055565b6000600260095460ff16600281111561054257fe5b14905090565b600254610100900460ff1681565b6000805460408051602060026001851615610100026000190190941693909304601f810184900484028201840190925281815292918301828280156105dc5780601f106105b1576101008083540402835291602001916105dc565b820191906000526020600020905b8154815290600101906020018083116105bf57829003601f168201915b505050505081565b60065481565b80516105fd90600090602084019061087a565b5050565b60085481565b604080518082019091528281526020808201839052600780546001810182556000919091528251805160029092027fa66cc928b5edb82af9bd49922954155ab7b0942694bea4ce44661d9a8736c68801926106679284929091019061087a565b506020828101518051610680926001850192019061087a565b5050600880546001019055505050565b6007818154811061069d57fe5b60009182526020918290206002918202018054604080516001831615610100026000190190921693909304601f8101859004850282018501909352828152909350918391908301828280156107335780601f1061070857610100808354040283529160200191610733565b820191906000526020600020905b81548152906001019060200180831161071657829003601f168201915b505050505090806001018054600181600116156101000203166002900480601f0160208091040260200160405190810160405280929190818152602001828054600181600116156101000203166002900480156107d15780601f106107a6576101008083540402835291602001916107d1565b820191906000526020600020905b8154815290600101906020018083116107b457829003601f168201915b5050505050905082565b60025460ff1681565b60095460ff1681565b60035481565b60018054604080516020600284861615610100026000190190941693909304601f810184900484028201840190925281815292918301828280156105dc5780601f106105b1576101008083540402835291602001916105dc565b6040518060400160405280601181526020017018d85b9b9bdd17d89957d8da185b99d959607a1b81525081565b828054600181600116156101000203166002900490600052602060002090601f016020900481019282601f106108bb57805160ff19168380011785556108e8565b828001600101855582156108e8579182015b828111156108e85782518255916020019190600101906108cd565b506108f49291506108f8565b5090565b5b808211156108f457600081556001016108f956fea264697066735822122090442a8c6ab91e328661ece0332326b057bfe193c5060188da13e2f60a0f5fa764736f6c63430007020033",
  "sourcePath": "d:/Github/smart-repo/src/hello-world/hello-world.sol",
  "compiler": {
    "name": "solc",
    "version": "0.7.2+commit.51b20bc0"
  },
  "functionHashes": {
    "a_bool()": "a65719f5",
    "activate()": "0f15f4c0",
    "add_person(string,string)": "9174a36f",
    "another_int()": "0b4831e6",
    "b_bool()": "24cc5846",
    "bigger_number()": "49c862e5",
    "constant_function()": "fefa748a",
    "default_value()": "dd15b9ff",
    "is_active()": "1a8012e4",
    "one_int()": "ca2339a2",
    "people(uint256)": "9e7a13ad",
    "people_count()": "7b95d97d",
    "set(string)": "4ed3885e",
    "small_number()": "0c0888b4",
    "state()": "c19d93fb",
    "value()": "3fa4f245"
  },
  "gasEstimates": {
    "creation": {
      "codeDepositCost": "474200",
      "executionCost": "infinite",
      "totalCost": "infinite"
    },
    "external": {
      "a_bool()": "1099",
      "activate()": "21036",
      "add_person(string,string)": "infinite",
      "another_int()": "1022",
      "b_bool()": "1044",
      "bigger_number()": "1065",
      "constant_function()": "infinite",
      "default_value()": "infinite",
      "is_active()": "1140",
      "one_int()": "1042",
      "people(uint256)": "infinite",
      "people_count()": "1021",
      "set(string)": "infinite",
      "small_number()": "1059",
      "state()": "1059",
      "value()": "infinite"
    }
  }
}