{
  "contractName": "HelloWorld",
  "abi": [
    {
      "inputs": [],
      "stateMutability": "nonpayable",
      "type": "constructor"
    },
    {
      "inputs": [],
      "name": "a_bool",
      "outputs": [
        {
          "internalType": "bool",
          "name": "",
          "type": "bool"
        }
      ],
      "stateMutability": "view",
      "type": "function"
    },
    {
      "inputs": [],
      "name": "activate",
      "outputs": [],
      "stateMutability": "nonpayable",
      "type": "function"
    },
    {
      "inputs": [
        {
          "internalType": "string",
          "name": "_first_name",
          "type": "string"
        },
        {
          "internalType": "string",
          "name": "_last_name",
          "type": "string"
        }
      ],
      "name": "addPerson",
      "outputs": [],
      "stateMutability": "nonpayable",
      "type": "function"
    },
    {
      "inputs": [],
      "name": "another_int",
      "outputs": [
        {
          "internalType": "uint256",
          "name": "",
          "type": "uint256"
        }
      ],
      "stateMutability": "view",
      "type": "function"
    },
    {
      "inputs": [],
      "name": "b_bool",
      "outputs": [
        {
          "internalType": "bool",
          "name": "",
          "type": "bool"
        }
      ],
      "stateMutability": "view",
      "type": "function"
    },
    {
      "inputs": [],
      "name": "bigger_number",
      "outputs": [
        {
          "internalType": "uint256",
          "name": "",
          "type": "uint256"
        }
      ],
      "stateMutability": "view",
      "type": "function"
    },
    {
      "inputs": [],
      "name": "constant_function",
      "outputs": [
        {
          "internalType": "string",
          "name": "",
          "type": "string"
        }
      ],
      "stateMutability": "view",
      "type": "function"
    },
    {
      "inputs": [],
      "name": "default_value",
      "outputs": [
        {
          "internalType": "string",
          "name": "",
          "type": "string"
        }
      ],
      "stateMutability": "view",
      "type": "function"
    },
    {
      "inputs": [],
      "name": "isActive",
      "outputs": [
        {
          "internalType": "bool",
          "name": "",
          "type": "bool"
        }
      ],
      "stateMutability": "view",
      "type": "function"
    },
    {
      "inputs": [],
      "name": "one_int",
      "outputs": [
        {
          "internalType": "int256",
          "name": "",
          "type": "int256"
        }
      ],
      "stateMutability": "view",
      "type": "function"
    },
    {
      "inputs": [
        {
          "internalType": "uint256",
          "name": "",
          "type": "uint256"
        }
      ],
      "name": "people",
      "outputs": [
        {
          "internalType": "uint256",
          "name": "_id",
          "type": "uint256"
        },
        {
          "internalType": "string",
          "name": "_first_name",
          "type": "string"
        },
        {
          "internalType": "string",
          "name": "_last_name",
          "type": "string"
        }
      ],
      "stateMutability": "view",
      "type": "function"
    },
    {
      "inputs": [],
      "name": "people_count",
      "outputs": [
        {
          "internalType": "uint256",
          "name": "",
          "type": "uint256"
        }
      ],
      "stateMutability": "view",
      "type": "function"
    },
    {
      "inputs": [
        {
          "internalType": "string",
          "name": "_value",
          "type": "string"
        }
      ],
      "name": "set",
      "outputs": [],
      "stateMutability": "nonpayable",
      "type": "function"
    },
    {
      "inputs": [],
      "name": "small_number",
      "outputs": [
        {
          "internalType": "uint8",
          "name": "",
          "type": "uint8"
        }
      ],
      "stateMutability": "view",
      "type": "function"
    },
    {
      "inputs": [],
      "name": "state",
      "outputs": [
        {
          "internalType": "enum HelloWorld.State",
          "name": "",
          "type": "uint8"
        }
      ],
      "stateMutability": "view",
      "type": "function"
    },
    {
      "inputs": [],
      "name": "value",
      "outputs": [
        {
          "internalType": "string",
          "name": "",
          "type": "string"
        }
      ],
      "stateMutability": "view",
      "type": "function"
    }
  ],
  "bytecode": "60c0604052600d60808190526c64656661756c745f76616c756560981b60a090815261002e91600191906100cf565b5060028054600160ff19918216811761ff0019169092556000196003556004919091556005805460089216919091179055610100600655635f75fab860095534801561007957600080fd5b5060408051808201909152600c8082526b48656c6c6f20576f726c642160a01b60209092019182526100ad916000916100cf565b50600b805460ff19169055600880546001600160a01b03191633179055610162565b828054600181600116156101000203166002900490600052602060002090601f016020900481019282601f1061011057805160ff191683800117855561013d565b8280016001018555821561013d579182015b8281111561013d578251825591602001919060010190610122565b5061014992915061014d565b5090565b5b80821115610149576000815560010161014e565b610937806101716000396000f3fe608060405234801561001057600080fd5b50600436106101005760003560e01c80634ed3885e11610097578063c19d93fb11610066578063c19d93fb146104d5578063ca2339a2146104fe578063dd15b9ff14610506578063fefa748a1461050e57610100565b80634ed3885e1461031d5780637b95d97d146103c35780639e7a13ad146103cb578063a65719f5146104cd57610100565b806322f5b58d116100d357806322f5b58d1461016357806324cc5846146102905780633fa4f2451461029857806349c862e51461031557610100565b80630b4831e6146101055780630c0888b41461011f5780630f15f4c01461013d57806322f3e2d414610147575b600080fd5b61010d610516565b60408051918252519081900360200190f35b61012761051c565b6040805160ff9092168252519081900360200190f35b610145610525565b005b61014f610534565b604080519115158252519081900360200190f35b6101456004803603604081101561017957600080fd5b81019060208101813564010000000081111561019457600080fd5b8201836020820111156101a657600080fd5b803590602001918460018302840111640100000000831117156101c857600080fd5b91908080601f016020809104026020016040519081016040528093929190818152602001838380828437600092019190915250929594936020810193503591505064010000000081111561021b57600080fd5b82018360208201111561022d57600080fd5b8035906020019184600183028401116401000000008311171561024f57600080fd5b91908080601f01602080910402602001604051908101604052809392919081815260200183838082843760009201919091525092955061054f945050505050565b61014f6105cc565b6102a06105da565b6040805160208082528351818301528351919283929083019185019080838360005b838110156102da5781810151838201526020016102c2565b50505050905090810190601f1680156103075780820380516001836020036101000a031916815260200191505b509250505060405180910390f35b61010d610668565b6101456004803603602081101561033357600080fd5b81019060208101813564010000000081111561034e57600080fd5b82018360208201111561036057600080fd5b8035906020019184600183028401116401000000008311171561038257600080fd5b91908080601f01602080910402602001604051908101604052809392919081815260200183838082843760009201919091525092955061066e945050505050565b61010d610685565b6103e8600480360360208110156103e157600080fd5b503561068b565b604051808481526020018060200180602001838103835285818151815260200191508051906020019080838360005b8381101561042f578181015183820152602001610417565b50505050905090810190601f16801561045c5780820380516001836020036101000a031916815260200191505b50838103825284518152845160209182019186019080838360005b8381101561048f578181015183820152602001610477565b50505050905090810190601f1680156104bc5780820380516001836020036101000a031916815260200191505b509550505050505060405180910390f35b61014f6107c4565b6104dd6107cd565b604051808260028111156104ed57fe5b815260200191505060405180910390f35b61010d6107d6565b6102a06107dc565b6102a0610836565b60045481565b60055460ff1681565b600b805460ff19166002179055565b60006002600b5460ff16600281111561054957fe5b14905090565b60095442101561055b57fe5b610563610863565b6040805160608101825260075480825260208083018681528385018690526000928352600a82529390912082518155925180519293926105a9926001850192019061086e565b50604082015180516105c591600284019160209091019061086e565b5050505050565b600254610100900460ff1681565b6000805460408051602060026001851615610100026000190190941693909304601f810184900484028201840190925281815292918301828280156106605780601f1061063557610100808354040283529160200191610660565b820191906000526020600020905b81548152906001019060200180831161064357829003601f168201915b505050505081565b60065481565b805161068190600090602084019061086e565b5050565b60075481565b600a602090815260009182526040918290208054600180830180548651600293821615610100026000190190911692909204601f8101869004860283018601909652858252919492939092908301828280156107285780601f106106fd57610100808354040283529160200191610728565b820191906000526020600020905b81548152906001019060200180831161070b57829003601f168201915b50505060028085018054604080516020601f60001961010060018716150201909416959095049283018590048502810185019091528181529596959450909250908301828280156107ba5780601f1061078f576101008083540402835291602001916107ba565b820191906000526020600020905b81548152906001019060200180831161079d57829003601f168201915b5050505050905083565b60025460ff1681565b600b5460ff1681565b60035481565b60018054604080516020600284861615610100026000190190941693909304601f810184900484028201840190925281815292918301828280156106605780601f1061063557610100808354040283529160200191610660565b6040518060400160405280601181526020017018d85b9b9bdd17d89957d8da185b99d959607a1b81525081565b600780546001019055565b828054600181600116156101000203166002900490600052602060002090601f016020900481019282601f106108af57805160ff19168380011785556108dc565b828001600101855582156108dc579182015b828111156108dc5782518255916020019190600101906108c1565b506108e89291506108ec565b5090565b5b808211156108e857600081556001016108ed56fea2646970667358221220b58b17a04d78a893b0a988c39ce82d1499c4687ff63467ecb947522cc8d6359d64736f6c63430007020033",
  "sourcePath": "d:/Github/smart-repo/src/hello-world/hello-world.sol",
  "compiler": {
    "name": "solc",
    "version": "0.7.2+commit.51b20bc0"
  },
  "functionHashes": {
    "a_bool()": "a65719f5",
    "activate()": "0f15f4c0",
    "addPerson(string,string)": "22f5b58d",
    "another_int()": "0b4831e6",
    "b_bool()": "24cc5846",
    "bigger_number()": "49c862e5",
    "constant_function()": "fefa748a",
    "default_value()": "dd15b9ff",
    "isActive()": "22f3e2d4",
    "one_int()": "ca2339a2",
    "people(uint256)": "9e7a13ad",
    "people_count()": "7b95d97d",
    "set(string)": "4ed3885e",
    "small_number()": "0c0888b4",
    "state()": "c19d93fb",
    "value()": "3fa4f245"
  },
  "gasEstimates": {
    "creation": {
      "codeDepositCost": "471800",
      "executionCost": "infinite",
      "totalCost": "infinite"
    },
    "external": {
      "a_bool()": "1099",
      "activate()": "21036",
      "addPerson(string,string)": "infinite",
      "another_int()": "1022",
      "b_bool()": "1066",
      "bigger_number()": "1087",
      "constant_function()": "infinite",
      "default_value()": "infinite",
      "isActive()": "1140",
      "one_int()": "1042",
      "people(uint256)": "infinite",
      "people_count()": "1043",
      "set(string)": "infinite",
      "small_number()": "1059",
      "state()": "1059",
      "value()": "infinite"
    },
    "internal": {
      "incrementCount()": "20824"
    }
  }
}